{
  "contractName": "identity_management",
  "abi": [
    {
      "anonymous": false,
      "inputs": [
        {
          "indexed": true,
          "internalType": "address",
          "name": "userAddress",
          "type": "address"
        },
        {
          "indexed": false,
          "internalType": "string",
          "name": "fName",
          "type": "string"
        },
        {
          "indexed": false,
          "internalType": "string",
          "name": "lName",
          "type": "string"
        },
        {
          "indexed": false,
          "internalType": "string",
          "name": "birthDate",
          "type": "string"
        }
      ],
      "name": "UserSubmitted",
      "type": "event"
    },
    {
      "constant": true,
      "inputs": [],
      "name": "taskCount",
      "outputs": [
        {
          "internalType": "uint256",
          "name": "",
          "type": "uint256"
        }
      ],
      "payable": false,
      "stateMutability": "view",
      "type": "function"
    },
    {
      "constant": true,
      "inputs": [
        {
          "internalType": "address",
          "name": "",
          "type": "address"
        }
      ],
      "name": "users",
      "outputs": [
        {
          "internalType": "string",
          "name": "fName",
          "type": "string"
        },
        {
          "internalType": "string",
          "name": "lName",
          "type": "string"
        },
        {
          "internalType": "string",
          "name": "birthDate",
          "type": "string"
        }
      ],
      "payable": false,
      "stateMutability": "view",
      "type": "function"
    },
    {
      "constant": false,
      "inputs": [
        {
          "internalType": "string",
          "name": "_fName",
          "type": "string"
        },
        {
          "internalType": "string",
          "name": "_lName",
          "type": "string"
        },
        {
          "internalType": "string",
          "name": "_birthDate",
          "type": "string"
        }
      ],
      "name": "submitForm",
      "outputs": [],
      "payable": false,
      "stateMutability": "nonpayable",
      "type": "function"
    },
    {
      "constant": true,
      "inputs": [
        {
          "internalType": "address",
          "name": "_userAddress",
          "type": "address"
        }
      ],
      "name": "getUser",
      "outputs": [
        {
          "internalType": "string",
          "name": "",
          "type": "string"
        },
        {
          "internalType": "string",
          "name": "",
          "type": "string"
        },
        {
          "internalType": "string",
          "name": "",
          "type": "string"
        }
      ],
      "payable": false,
      "stateMutability": "view",
      "type": "function"
    }
  ],
  "bytecode": "0x60806040526000805534801561001457600080fd5b50610a71806100246000396000f3fe608060405234801561001057600080fd5b506004361061004c5760003560e01c8063112d8423146100515780636f77926b14610207578063a87430ba14610371578063b6cb58a514610397575b600080fd5b6102056004803603606081101561006757600080fd5b81019060208101813564010000000081111561008257600080fd5b82018360208201111561009457600080fd5b803590602001918460018302840111640100000000831117156100b657600080fd5b91908080601f016020809104026020016040519081016040528093929190818152602001838380828437600092019190915250929594936020810193503591505064010000000081111561010957600080fd5b82018360208201111561011b57600080fd5b8035906020019184600183028401116401000000008311171561013d57600080fd5b91908080601f016020809104026020016040519081016040528093929190818152602001838380828437600092019190915250929594936020810193503591505064010000000081111561019057600080fd5b8201836020820111156101a257600080fd5b803590602001918460018302840111640100000000831117156101c457600080fd5b91908080601f0160208091040260200160405190810160405280939291908181526020018383808284376000920191909152509295506103b1945050505050565b005b61022d6004803603602081101561021d57600080fd5b50356001600160a01b031661059e565b60405180806020018060200180602001848103845287818151815260200191508051906020019080838360005b8381101561027257818101518382015260200161025a565b50505050905090810190601f16801561029f5780820380516001836020036101000a031916815260200191505b50848103835286518152865160209182019188019080838360005b838110156102d25781810151838201526020016102ba565b50505050905090810190601f1680156102ff5780820380516001836020036101000a031916815260200191505b50848103825285518152855160209182019187019080838360005b8381101561033257818101518382015260200161031a565b50505050905090810190601f16801561035f5780820380516001836020036101000a031916815260200191505b50965050505050505060405180910390f35b61022d6004803603602081101561038757600080fd5b50356001600160a01b03166107ae565b61039f61097a565b60408051918252519081900360200190f35b604080516060810182528481526020808201859052818301849052336000908152600182529290922081518051929391926103ef9284920190610980565b5060208281015180516104089260018501920190610980565b5060408201518051610424916002840191602090910190610980565b50905050336001600160a01b03167f89be02d2b72d5addc83e14480fdb287cf08fbe3d07fca7b3772c0b124c9a231684848460405180806020018060200180602001848103845287818151815260200191508051906020019080838360005b8381101561049b578181015183820152602001610483565b50505050905090810190601f1680156104c85780820380516001836020036101000a031916815260200191505b50848103835286518152865160209182019188019080838360005b838110156104fb5781810151838201526020016104e3565b50505050905090810190601f1680156105285780820380516001836020036101000a031916815260200191505b50848103825285518152855160209182019187019080838360005b8381101561055b578181015183820152602001610543565b50505050905090810190601f1680156105885780820380516001836020036101000a031916815260200191505b50965050505050505060405180910390a2505050565b60608060606105ab6109fe565b6001600160a01b0385166000908152600160208181526040928390208351815460029481161561010002600019011693909304601f8101839004909202830160809081019094526060830182815292939092849290918491908401828280156106555780601f1061062a57610100808354040283529160200191610655565b820191906000526020600020905b81548152906001019060200180831161063857829003601f168201915b50505050508152602001600182018054600181600116156101000203166002900480601f0160208091040260200160405190810160405280929190818152602001828054600181600116156101000203166002900480156106f75780601f106106cc576101008083540402835291602001916106f7565b820191906000526020600020905b8154815290600101906020018083116106da57829003601f168201915b5050509183525050600282810180546040805160206001841615610100026000190190931694909404601f810183900483028501830190915280845293810193908301828280156107895780601f1061075e57610100808354040283529160200191610789565b820191906000526020600020905b81548152906001019060200180831161076c57829003601f168201915b5050509190925250508151602083015160409093015190989297509550909350505050565b60016020818152600092835260409283902080548451600294821615610100026000190190911693909304601f81018390048302840183019094528383529283918301828280156108405780601f1061081557610100808354040283529160200191610840565b820191906000526020600020905b81548152906001019060200180831161082357829003601f168201915b505050505090806001018054600181600116156101000203166002900480601f0160208091040260200160405190810160405280929190818152602001828054600181600116156101000203166002900480156108de5780601f106108b3576101008083540402835291602001916108de565b820191906000526020600020905b8154815290600101906020018083116108c157829003601f168201915b50505060028085018054604080516020601f60001961010060018716150201909416959095049283018590048502810185019091528181529596959450909250908301828280156109705780601f1061094557610100808354040283529160200191610970565b820191906000526020600020905b81548152906001019060200180831161095357829003601f168201915b5050505050905083565b60005481565b828054600181600116156101000203166002900490600052602060002090601f016020900481019282601f106109c157805160ff19168380011785556109ee565b828001600101855582156109ee579182015b828111156109ee5782518255916020019190600101906109d3565b506109fa929150610a1f565b5090565b60405180606001604052806060815260200160608152602001606081525090565b610a3991905b808211156109fa5760008155600101610a25565b9056fea265627a7a72315820b75729bb497380eca97f2d66336890509a4ee0ab92814517de4e5a341d25f89864736f6c63430005100032",
  "source": "pragma solidity ^0.5.0;\r\n\r\ncontract identity_management {\r\n    uint public taskCount = 0;\r\n\r\n    // Structure to store user data\r\n    struct User {\r\n        string fName;\r\n        string lName;\r\n        string birthDate;\r\n    }\r\n\r\n    // Mapping to store user information using their address\r\n    mapping(address => User) public users;\r\n\r\n    // Event to log user data submission\r\n    event UserSubmitted(address indexed userAddress, string fName, string lName, string birthDate);\r\n\r\n    // Function to submit the form data\r\n    function submitForm(string memory _fName, string memory _lName, string memory _birthDate) public {\r\n        // Create a new user and store it in the mapping\r\n        users[msg.sender] = User(_fName, _lName, _birthDate);\r\n\r\n        // Emit an event for logging purposes\r\n        emit UserSubmitted(msg.sender, _fName, _lName, _birthDate);\r\n    }\r\n\r\n    // Function to retrieve user data\r\n    function getUser(address _userAddress) public view returns (string memory, string memory, string memory) {\r\n        User memory user = users[_userAddress];\r\n        return (user.fName, user.lName, user.birthDate);\r\n    }\r\n}\r\n\r\n\r\n    \r\n    ",
  "sourcePath": "C:\\Users\\Admin\\OneDrive - Sol Plaatje University\\Desktop\\Machine Learning\\blockchain_identity_management\\contracts\\identity_management.sol",
  "compiler": {
    "name": "solc",
    "version": "0.5.16+commit.9c3226ce.Emscripten.clang"
  },
  "schemaVersion": "3.4.16",
  "updatedAt": "2024-09-15T04:05:58.595Z",
  "networkType": "ethereum",
  "devdoc": {
    "methods": {}
  },
  "userdoc": {
    "methods": {}
  }
}